{
  "address": "0x572De490FA23531A194147467649e670Ca3c2c97",
  "abi": [
    {
      "inputs": [],
      "name": "getUserNum",
      "outputs": [
        {
          "internalType": "uint256",
          "name": "",
          "type": "uint256"
        }
      ],
      "stateMutability": "view",
      "type": "function"
    },
    {
      "inputs": [],
      "name": "joinWhitelist",
      "outputs": [],
      "stateMutability": "nonpayable",
      "type": "function"
    },
    {
      "inputs": [
        {
          "internalType": "address",
          "name": "",
          "type": "address"
        }
      ],
      "name": "member",
      "outputs": [
        {
          "internalType": "bool",
          "name": "",
          "type": "bool"
        }
      ],
      "stateMutability": "view",
      "type": "function"
    }
  ],
  "transactionHash": "0x2ce826c069c5b4c898fe90afe455fee3269c858bbb8c201162b4c5474220b27e",
  "args": [],
  "numDeployments": 1,
  "solcInputHash": "936c3d6e1652207989431171d38b4c28",
  "bytecode": "0x608060405260008055600a60015534801561001957600080fd5b506104ab806100296000396000f3fe608060405234801561001057600080fd5b50600436106100415760003560e01c8063a9518e8814610046578063cdce520614610050578063e7d4539e1461006e575b600080fd5b61004e61009e565b005b6100586101e4565b604051610065919061030e565b60405180910390f35b61008860048036038101906100839190610222565b6101ed565b60405161009591906102b3565b60405180910390f35b600260003373ffffffffffffffffffffffffffffffffffffffff1673ffffffffffffffffffffffffffffffffffffffff16815260200190815260200160002060009054906101000a900460ff161561012b576040517f08c379a0000000000000000000000000000000000000000000000000000000008152600401610122906102ee565b60405180910390fd5b60015460005410610171576040517f08c379a0000000000000000000000000000000000000000000000000000000008152600401610168906102ce565b60405180910390fd5b6001600080828254610183919061033a565b925050819055506001600260003373ffffffffffffffffffffffffffffffffffffffff1673ffffffffffffffffffffffffffffffffffffffff16815260200190815260200160002060006101000a81548160ff021916908315150217905550565b60008054905090565b60026020528060005260406000206000915054906101000a900460ff1681565b60008135905061021c8161045e565b92915050565b60006020828403121561023857610237610407565b5b60006102468482850161020d565b91505092915050565b610258816103a2565b82525050565b600061026b601283610329565b91506102768261040c565b602082019050919050565b600061028e601883610329565b915061029982610435565b602082019050919050565b6102ad816103ce565b82525050565b60006020820190506102c8600083018461024f565b92915050565b600060208201905081810360008301526102e78161025e565b9050919050565b6000602082019050818103600083015261030781610281565b9050919050565b600060208201905061032360008301846102a4565b92915050565b600082825260208201905092915050565b6000610345826103ce565b9150610350836103ce565b9250827fffffffffffffffffffffffffffffffffffffffffffffffffffffffffffffffff03821115610385576103846103d8565b5b828201905092915050565b600061039b826103ae565b9050919050565b60008115159050919050565b600073ffffffffffffffffffffffffffffffffffffffff82169050919050565b6000819050919050565b7f4e487b7100000000000000000000000000000000000000000000000000000000600052601160045260246000fd5b600080fd5b7f536f72727921205765206172652066756c6c0000000000000000000000000000600082015250565b7f596f752061726520616c72656164792061206d656d6265720000000000000000600082015250565b61046781610390565b811461047257600080fd5b5056fea2646970667358221220f2a859fe6592a73f790561da56a4c04b7238e1a997e7efe3b44e06c9bd50aa7b64736f6c63430008070033",
  "devdoc": {
    "kind": "dev",
    "methods": {},
    "version": 1
  },
  "userdoc": {
    "kind": "user",
    "methods": {},
    "version": 1
  },
  "storageLayout": {
    "storage": [
      {
        "astId": 4,
        "contract": "contracts/Whitelist.sol:Whitelist",
        "label": "userNum",
        "offset": 0,
        "slot": "0",
        "type": "t_uint256"
      },
      {
        "astId": 7,
        "contract": "contracts/Whitelist.sol:Whitelist",
        "label": "maxUserNum",
        "offset": 0,
        "slot": "1",
        "type": "t_uint256"
      },
      {
        "astId": 11,
        "contract": "contracts/Whitelist.sol:Whitelist",
        "label": "member",
        "offset": 0,
        "slot": "2",
        "type": "t_mapping(t_address,t_bool)"
      }
    ],
    "types": {
      "t_address": {
        "encoding": "inplace",
        "label": "address",
        "numberOfBytes": "20"
      },
      "t_bool": {
        "encoding": "inplace",
        "label": "bool",
        "numberOfBytes": "1"
      },
      "t_mapping(t_address,t_bool)": {
        "encoding": "mapping",
        "key": "t_address",
        "label": "mapping(address => bool)",
        "numberOfBytes": "32",
        "value": "t_bool"
      },
      "t_uint256": {
        "encoding": "inplace",
        "label": "uint256",
        "numberOfBytes": "32"
      }
    }
  }
}